:100000000C9462000C948A000C948A000C948A0070
:100010000C948A000C948A000C948A000C948A0038
:100020000C948A000C948A000C948A000C948A0028
:100030000C948A000C948A000C948A000C948A0018
:100040000C9477040C948A000C948A000C948A0017
:100050000C948A000C948A000C948A000C948A00F8
:100060000C94C1040C948A000000000024002700B6
:100070002A0000000000250028002B0000000000DE
:1000800023002600290004040404040404040202DA
:100090000202020203030303030301020408102007
:1000A0004080010204081020010204081020000012
:1000B0000008000201000003040700000000000027
:1000C0000000A50711241FBECFEFD8E0DEBFCDBFD3
:1000D00011E0A0E0B1E0E2E3F0E102C005900D9292
:1000E000A231B107D9F721E0A2E1B1E001C01D9230
:1000F000A53EB207E1F710E0C2E6D0E004C02197C8
:10010000FE010E941108C136D107C9F70E94E0051F
:100110000C9417080C94000008950895833081F022
:1001200028F4813099F08230A9F008958730A9F041
:100130008830C9F08430B1F4809180008F7D03C095
:10014000809180008F7780938000089584B58F77A9
:1001500084BD089584B58F7DFBCF8091B0008F77EB
:100160008093B00008958091B0008F7DF9CF1F93E8
:10017000CF93DF93282F30E0F901E255FF4F8491B0
:10018000F901E656FF4FD491F901EA57FF4FC491A8
:10019000CC23A9F0162F81110E948E00EC2FF0E0E5
:1001A000EE0FFF1FEE58FF4FA591B4918FB7F89453
:1001B000EC91111108C0D095DE23DC938FBFDF9145
:1001C000CF911F910895DE2BF8CFCF93DF9390E06E
:1001D000FC01E656FF4F24918A579F4FFC01849102
:1001E0008823C9F090E0880F991FFC01E859FF4F60
:1001F000A591B491FC01EE58FF4FC591D4916111C6
:100200000DC09FB7F8948C91209582238C938881A0
:10021000282328839FBFDF91CF910895623051F446
:100220009FB7F8943C91822F809583238C93E8812B
:100230002E2BEFCF8FB7F894EC912E2B2C938FBFF2
:10024000EACF3FB7F89480915B0190915C01A09157
:100250005D01B0915E0126B5A89B05C02F3F19F046
:100260000196A11DB11D3FBFBA2FA92F982F882736
:10027000BC01CD01620F711D811D911D42E0660F11
:10028000771F881F991F4A95D1F708958F929F92E3
:10029000AF92BF92CF92DF92EF92FF924B015C013F
:1002A0000E9421016B017C010E9421016C197D09D2
:1002B0008E099F09683E734081059105A8F321E0EE
:1002C000821A9108A108B10888EEC80E83E0D81EF2
:1002D000E11CF11C81149104A104B10429F7FF90E1
:1002E000EF90DF90CF90BF90AF909F908F90089548
:1002F0002FB7F8946091570170915801809159017E
:1003000090915A012FBF089520913301260F332772
:10031000331F21323105ECF42091AF01FC0190E054
:1003200080E0243069F082E00895A09133012191AA
:10033000AC014D5E5E4FA40FB52FB11D2C930196FD
:10034000861798F380913301680F6093330180E042
:10035000089581E008951092AF0181E08093AE018D
:100360001092890161E082E10E94B70061E083E1BF
:100370000E94B700E9EBF0E080818E7F808380816E
:100380008D7F808388E48093B80085E48093BC00EF
:100390000895CF93DF9391E0909312018823B9F0F1
:1003A000C091B800D091BA008091BC008A7B809344
:1003B000BC0060E082E10E94B70060E083E10E943F
:1003C000B7000E94AB01D093BA00C093B800DF9190
:1003D000CF910895CF92DF92EF92FF920F931F93E8
:1003E000CF93DF93D091D80181E0D13208F09CC047
:1003F000C091D7010E9421016B017C018091AF0166
:1004000081116CC082E08093AF0181E08093AE01E6
:100410008FEF8093AD011092AC01D093AB01A7EBAD
:10042000B1E0EBE8F1E080E0D8138DC010928A01D2
:1004300080918A01CC0FC82BC0938A0180918901D9
:10044000813009F084C0109289010E9421016B0162
:100450007C0180918A018093BB008091B1019091D1
:10046000B201A091B301B091B401892B8A2B8B2BDF
:10047000A1F00E9421010091B1011091B2012091DF
:10048000B3013091B4016C197D098E099F090617DB
:1004900017072807390708F442C08091BC0083FD84
:1004A000D8CF85EC8093BC000E9421016B017C01B8
:1004B0008091AF01823009F44CC08091AD018F3F33
:1004C00009F469C08091AD01803209F466C0809161
:1004D000AD01803309F463C084E026C08091B1018E
:1004E0009091B201A091B301B091B401892B8A2BF4
:1004F0008B2B09F483CF0E9421010091B10110914F
:10050000B2012091B3013091B4016C197D098E09BB
:100510009F09061717072807390708F06FCF809142
:10052000B0010E94C90185E01092B6011092D80175
:100530001092B501DF91CF911F910F91FF90EF9035
:10054000DF90CF9008959D9191938F5F6DCF85EE51
:10055000A9CF8091B1019091B201A091B301B09166
:10056000B401892B8A2B8B2B09F4A2CF0E94210185
:100570000091B1011091B2012091B3013091B40109
:100580006C197D098E099F09061717072807390777
:1005900008F08ECFC4CF80E0C7CF82E0C5CF83E024
:1005A000C3CF0895E091680180916701E81730F4A6
:1005B000F0E0E759FE4F808190E008958FEF9FEFC4
:1005C000089590916801809167012FEF3FEF981790
:1005D00048F4E92FF0E0E759FE4F208130E09F5FBB
:1005E00090936801C9010895809167019091680115
:1005F000891B990B0895CF92DF92EF92FF920F9390
:100600001F93CF93DF937C01CB018A012091B50129
:10061000222389F0EB016B01C40ED51ECC15DD053C
:1006200069F06991D701ED91FC910190F081E02D85
:10063000C7010995F3CF642F0E948401C801DF919F
:10064000CF911F910F91FF90EF90DF90CF90089581
:10065000CF93DF931F92CDB7DEB769832091B501A9
:100660002223F9F02091D801203258F021E030E027
:10067000FC013383228390E080E00F90DF91CF91E3
:1006800008958091B601E82FF0E0E954FE4F99817A
:1006900090838F5F8093B6018093D80181E090E0D2
:1006A000ECCF61E0CE0101960E948401F7CF682F64
:1006B00089ED91E00C94280390E080E00895CF93B9
:1006C000C82FCC2351F061E087E00E94B70060E0C2
:1006D00087E00E94B700C150F4CFCF91089561E048
:1006E00089E00C94B70060E089E00C94B700CF92E9
:1006F000DF92EF92FF920F931F930E9421016B01F3
:100700007C018091AF01811163C081E08093AF01D2
:100710008093AE019FEF9093AD011092AC011092C7
:10072000AB0180938A0180918A01826A80938A0159
:1007300080918901813009F07CC0109289010E946A
:1007400021016B017C0180918A018093BB00809123
:10075000B1019091B201A091B301B091B401892B84
:100760008A2B8B2BA1F00E9421010091B1011091E5
:10077000B2012091B3013091B4016C197D098E0949
:100780009F09061717072807390708F442C0809108
:10079000BC0083FDD8CF85EC8093BC000E94210172
:1007A0006B017C018091AF01813009F444C08091DC
:1007B000AC01811162C08091AC01ABE8B1E0E9E627
:1007C000F1E090E0981751F12D9121939F5FFACFBE
:1007D0008091B1019091B201A091B301B091B401A7
:1007E000892B8A2B8B2B09F48CCF0E94210100913D
:1007F000B1011091B2012091B3013091B4016C1993
:100800007D098E099F09061717072807390708F081
:1008100078CF8091B0010E94C90180E010926801F8
:10082000809367011F910F91FF90EF90DF90CF9021
:10083000089585EEB1CF8091B1019091B201A09160
:10084000B301B091B401892B8A2B8B2B09F4AACF69
:100850000E9421010091B1011091B2012091B301D8
:100860003091B4016C197D098E099F09061717078D
:100870002807390708F096CFCCCF81E09ECF85EDD1
:100880008093BC008091B1019091B201A091B3011D
:10089000B091B4010796A11DB11D23E0B695A795AF
:1008A000979587952A95D1F72091BC0024FD03C028
:1008B0001092AF0108954091B1015091B201609141
:1008C000B3017091B401452B462B472B69F3009778
:1008D000A105B10541F02AE22A95F1F700C0019780
:1008E000A109B109E1CF8091B0010C94C9011F9217
:1008F0000F920FB60F9211242F933F938F939F93D4
:10090000AF93BF938091570190915801A0915901E5
:10091000B0915A013091560123E0230F2D3758F53D
:100920000196A11DB11D209356018093570190930C
:100930005801A0935901B0935A0180915B019091A5
:100940005C01A0915D01B0915E010196A11DB11DF8
:1009500080935B0190935C01A0935D01B0935E0175
:10096000BF91AF919F918F913F912F910F900FBEAB
:100970000F901F90189526E8230F0296A11DB11D18
:10098000D2CF1F920F920FB60F9211242F933F9345
:100990004F935F936F937F938F939F93AF93BF9387
:1009A000EF93FF938091B900887F803609F44AC0A5
:1009B000F0F5883209F4A7C018F5803109F49BC01E
:1009C000B8F4882309F4F9C0883009F494C0FF9181
:1009D000EF91BF91AF919F918F917F916F915F91B7
:1009E0004F913F912F910F900FBE0F901F90189530
:1009F000883109F488C0803251F78093AD0114C06A
:100A0000803409F49DC040F48033B9F38833F9F69B
:100A10008093AD0185ECB0C0803509F485C0883580
:100A200009F496C0883499F60E943F04D0CF8839E3
:100A300009F48CC038F5883729F050F4883611F065
:100A4000803729F683E08093AF011092550157C09B
:100A5000883809F47BC0803919F0803809F0B7CFA5
:100A600080915501803208F071C0E091550181E01C
:100A70008E0F809355018091BB00F0E0EB5CFE4F40
:100A800080833DC0803B39F0E0F4803A09F479C0BE
:100A9000883A09F09CCF84E08093AF011092340132
:100AA00010923301E0916101F0916201099580910A
:100AB000330181110FC081E0809333011092130143
:100AC00009C0803C09F4A6CF883C09F4A3CF883B39
:100AD00009F07DCFE091340181E08E0F80933401E5
:100AE000F0E0ED5EFE4F80818093BB009091340179
:100AF0008091330129C080918A018093BB0085ECED
:100B00008093BC0064CF9091AC018091AB019817A9
:100B100058F5E091AC0181E08E0F8093AC01F0E0DC
:100B2000E557FE4F8081E9CFE091AC0181E08E0F67
:100B30008093AC018091BB00F0E0E557FE4F8083CD
:100B40009091AC018091AB019817C8F285E8D8CF9D
:100B5000E091AC0181E08E0F8093AC018091BB00ED
:100B6000F0E0E557FE4F80838091AE0181115CCFAC
:100B700081E08093890184EA8093BC001092AF01E8
:100B800026CF85EC8093BC001092AF018091550177
:100B9000803230F4E0915501F0E0EB5CFE4F1082C2
:100BA0006091550170E0E0915F01F091600185E393
:100BB00091E00995109255010ACF1092AD0134CF02
:100BC000789484B5826084BD84B5816084BD85B528
:100BD000826085BD85B5816085BD80916E00816034
:100BE00080936E00109281008091810082608093DA
:100BF00081008091810081608093810080918000DC
:100C00008160809380008091B10084608093B10006
:100C10008091B00081608093B00080917A00846000
:100C200080937A0080917A00826080937A0080912C
:100C30007A00816080937A0080917A008068809346
:100C40007A001092C10064E670E080E090E00E94BB
:100C5000460110926801109267011092D8010E941B
:100C6000AB018CE890E090936201809361018DE884
:100C700090E09093600180935F0181E58093D701BC
:100C80000E94EA0162E086E00E94E50060E08FE0F9
:100C90000E94E50061E087E00E94E50061E089E0F4
:100CA0000E94E500D1E011E5D093B5011093D70182
:100CB0001092B6011092D80190E080E00E94570394
:100CC0000E94EA010E94770389ED91E00E94E1020F
:100CD000C82FD093B5011092B6011092D80182E0CE
:100CE00090E00E9457030E94EA010E94770389ED79
:100CF00091E00E94E102C5FBCC27C0F9881F88273C
:100D0000881FC82BA1F00E9473038CE20E945F032E
:100D10006CE474E080E090E00E9446010E946F0362
:100D200064E670E080E090E00E944601BDCF0E9442
:100D30006F030E9478016093630170936401809354
:100D400065019093660164EB862E60E0962EC0EA02
:100D5000D0E00CE810E074E2472E55245394612C47
:100D6000712CE0E0AE2EE0E0BE2E33243394F1E5AA
:100D70002F2EF4018491FE01F490F801E490EE200E
:100D800009F49FC081110E948E00EE2DF0E0EE0F5D
:100D9000FF1FE458FF4FA591B4918C91F82209F4FC
:100DA00090C00E947801C0906301D0906401E090EF
:100DB0006501F09066016C197D098E099F096B3001
:100DC00071058105910508F483C00E9478016C19B2
:100DD0007D098E099F09683E73408105910508F0E1
:100DE00077C00E9473033092B5012092D701109210
:100DF000B6011092D80184E090E00E9457030E944F
:100E0000EA010E94770389ED91E00E94E1029C01D2
:100E100094E0359527959A95E1F72F703327922F17
:100E2000990F990F291B220F820F0E945F036CE418
:100E300074E080E090E00E9446010E946F0364E647
:100E400070E080E090E00E9446010E9473033092BF
:100E5000B5011092B6011092D80183E090E00E9493
:100E600057030E94EA010E94770389ED91E00E94F6
:100E7000E1028F77282F30E044E0359527954A9599
:100E8000E1F7922F990F990F291B220F820F0E94D1
:100E90005F0368EE73E080E090E00E9446010E94EC
:100EA0006F0364E670E080E090E00E9446010E94DB
:100EB000780160936301709364018093650190935E
:100EC0006601A114B10409F454CF0E94000051CF6F
:100ED0000E9478016C197D098E099F09693E734053
:100EE0008105910520F30E94730360E08FE00E946A
:100EF000E50081E480937C0080917A008064809397
:100F00007A0080917A0086FDFCCF209178003091A4
:100F100079002B3DE2E03E0710F42BED32E050E08B
:100F200040E02B5D324041095109A3E6B0E00E9448
:100F3000D507A30192010E94B607822F0E945F038A
:100F400068E176E080E090E0A8CFE9EDF1E013827F
:100F5000128288EE93E0A0E0B0E084839583A683BC
:100F6000B78384E091E0918380830895052E97FBF9
:100F70001EF400940E94CD0757FD07D00E94E007A1
:100F800007FC03D04EF40C94CD0750954095309556
:100F900021953F4F4F4F5F4F0895909580957095E5
:100FA00061957F4F8F4F9F4F08950E940208A59F24
:100FB000900DB49F900DA49F800D911D1124089554
:100FC000A1E21A2EAA1BBB1BFD010DC0AA1FBB1F4D
:100FD000EE1FFF1FA217B307E407F50720F0A21BBF
:100FE000B30BE40BF50B661F771F881F991F1A942C
:100FF00069F760957095809590959B01AC01BD0156
:10100000CF010895A29FB001B39FC001A39F700DAF
:10101000811D1124911DB29F700D811D1124911D00
:101020000895EE0FFF1F0590F491E02D0994F894B8
:02103000FFCFF0
:10103200000000002803FB025C03D102F402E1027B
:02104200D202D8
:00000001FF
