:1000000021C045C044C043C042C0C3C440C03FC07B
:100010003EC03DC03CC03BC03AC039C038C0000003
:100020000000370000000000380001030000040059
:10003000000000003600020202020202010204086F
:100040001020170511241FBECFE5D2E0DEBFCDBFC3
:1000500010E0A0E6B0E0E8EFFAE002C005900D92F3
:10006000A036B107D9F720E0A0E6B0E001C01D92AC
:10007000A338B207E1F710E0C2E2D0E003C0219755
:10008000FE0132D5C132D107D1F7CDD433C5B8CFB7
:10009000813039F0823049F0833059F0843069F092
:1000A00008958AB58F778ABD08958AB58F7D8ABDF8
:1000B000089580B78F7D80BF08958CB58F7D8CBDEE
:1000C000EFCF8F7087B987B187B986B1806486B961
:1000D0003699FECF84B195B1089580E48CBD8FEF41
:1000E0008DBD87EC80BF089583E08ABD83BF78947F
:1000F00089B7826089BFF1DF86E886B908950895DF
:100100003FB7F89480917F0090918000A09181008A
:10011000B091820022B708B601FE05C02F3F19F04A
:100120000196A11DB11D3FBFBA2FA92F982F882777
:10013000BC01CD01620F711D811D911D660F771FDE
:10014000881F991F660F771F881F991F660F771FDB
:10015000881F991F0895CF92DF92EF92FF92CF935D
:10016000DF936B017C01CCDFEB0112C081E0C81A88
:10017000D108E108F108C851DC4FC2DF6C1B7D0BD0
:10018000683E734028F0C114D104E104F10471F712
:10019000C114D104E104F10481F7DF91CF91FF9004
:1001A000EF90DF90CF9008952FB7F89460917B0087
:1001B00070917C0080917D0090917E002FBF08950A
:1001C0004F925F926F927F92AF92BF92CF92DF92E7
:1001D000EF92FF920F931F93CF93DF9300D000D045
:1001E000CDB7DEB729013A01E982FA820B831C837D
:1001F00064197509860997090D891E892F89388D1B
:10020000A90198012A193B094C095D0916D42981D5
:100210003A814B815C81241935094609570926D456
:10022000CA01B9016A0D7B1D8C1D9D1D0F900F9099
:100230000F900F90DF91CF911F910F91FF90EF9052
:10024000DF90CF90BF90AF907F906F905F904F9076
:10025000089580917900089588B3816088BB88B340
:10026000846088BB87B3846087BB87B3816087BBAA
:100270008FEF8FB98AE28DB980EF8EB90895E09142
:100280007800EF5FE0937800F0E0EA59FF4F80815B
:1002900090E00895E0916500E13150F4EF5FE09364
:1002A0006500F0E0EA59FF4F608381E090E0089537
:1002B00090E080E0089510926500660F60936600FC
:1002C0000895CADF0895019709F008956F3F7F4FA1
:1002D000E1F76ADF609361007093620080936300CE
:1002E00090936400F2CF282F30E03595279535950F
:1002F00027953595279535952795922F990F990F25
:10030000291B922F990F890F08958823CCF090E034
:10031000FC01E45CFF4F24918A5C9F4FFC018491B7
:10032000E82FF0E08823F9F0EE0FFF1FE05DFF4FAC
:10033000A591B491EC91E22399F490E080E00895C6
:100340008F7741F0813041F0823041F08330F9F213
:100350008FEFDDCF85E0DBCF82E0D9CF84E0D7CF50
:1003600081E090E0089590E080E008950F931F935E
:10037000CF93DF93162F882344F1282F30E0F90123
:10038000E65DFF4F8491F901E45CFF4F04912A5C24
:100390003F4FF9012491C22FD0E0222389F081112F
:1003A00024C0FE01EE0FFF1FEC5DFF4FA591B4913D
:1003B0001123E9F08FB7F894EC91E02BEC938FBF09
:1003C000DF91CF911F910F9108958F7741F0813088
:1003D00041F0823041F0833081F28FEFCECF85E063
:1003E000CCCF82E0CACF84E0C8CF52DEDACF8FB75D
:1003F000F8949C91E02FE095E923EC938FBFE0CF38
:10040000CF93C82FCC2341F061E084E0AFDF60E000
:1004100084E0ACDFC150F6CFCF91089560E083E077
:10042000A5DF089561E083E0A1DF0895CF93DF9316
:1004300088232CF190E0FC01E45CFF4F24918A5C5E
:100440009F4FFC018491E82FF0E0882399F1CF01C0
:10045000880F991FFC01E25EFF4FA591B491FC014A
:10046000EC5DFF4FC591D4916623C9F0623029F14C
:100470008FB7F894EC91E22BEC938FBF1BC08F7772
:1004800041F0813041F0823041F0833099F28FEFBA
:10049000D1CF85E0CFCF82E0CDCF84E0CBCF9FB767
:1004A000F8948C91E22FE0958E238C938881E82339
:1004B000E8839FBFDF91CF9108959FB7F8943C9157
:1004C000822F809583238C93E881E22BE8839FBF62
:1004D000F1CFAF92BF92CF92DF92EF92FF920F9344
:1004E0001F9360E085E0A2DF85E0EBDD8B3D22E03D
:1004F000920710F48BED92E0BC0190E080E01F9237
:100500001F921F9223E62F93A12CB12C6501EE249C
:10051000EA9413E0F12E00E010E02BED32E040E031
:1005200050E04EDE0F900F900F900F90862F1F918E
:100530000F91FF90EF90DF90CF90BF90AF90089514
:1005400088B38E7F88BB88B3846088BBB29BFECFA4
:100550008AE08A95F1F700C088B3816088BB8DE09E
:100560008A95F1F700009EB1892F807295FD04C035
:1005700094E090937900089581E0089588B38460B1
:1005800088BBC29BFECF8DE08A95F1F7000088B34F
:100590008E7F88BB8AE08A95F1F700C088B38B7F95
:1005A00088BB88B3816088BB779905C083E080935E
:1005B000790080E0089581E008958EB98DE08A95F4
:1005C000F1F700008BE28DB9B29BFECF8AE08A95ED
:1005D000F1F700C08BE28DB9769BF0CF8DE08A9564
:1005E000F1F700008FB19FEF9FB997B3916097BB70
:1005F0000895CF92DF92EF92FF920F931F93CF93C4
:10060000DF937C01D62F80917900816080937900FF
:10061000F701808180FD05C0809179008260809320
:100620007900ACDF882309F45EC0CD2F870133C089
:1006300090917900892F817090FF05C081E08093AF
:10064000790080E050C092E0909379004CC0F701AF
:1006500080818160808381E0809379008FDF8823AF
:1006600019F0CD2F870115C09AE0909379003BC017
:1006700087B38E7F87BB6801FFEFCF1ADF0A80EF59
:100680009CDFF8018083C13051F11FB88EEF95DFF8
:100690008601C15039F180917900837049F388B3A4
:1006A0008B7F88BB6801FFEFCF1ADF0AF8018081DA
:1006B0008FB980EF82DF87B38E7F87BB8EEF7DDFC0
:1006C00080FDB6CF809179008570843009F4BFCF6A
:1006D000809179008E7F809379008601DACF8FEF49
:1006E0008FB9D4CF81E0DF91CF911F910F91FF900F
:1006F000EF90DF90CF900895109279007ADF0895FF
:10070000862F1092780061E0640F90E0880F991FA7
:1007100081608093660086E690E0EEDF882339F002
:100720000FDF882311F080E0089593DD089591DDB7
:100730000895CF93C62F609165006F5F86E690E0C5
:10074000DBDF10926500882361F0C11103C08C2F9C
:10075000CF910895F5DE882311F080E0F9CF79DD9F
:10076000F7CF77DDF5CF61E0E4DF089561E580E65E
:1007700090E0A1DD63E080E690E08CDD80E690E033
:10078000F2DF41E061E580E690E0BADF80E690E0EC
:1007900076DD8F77A8DD089561E580E690E08BDD5A
:1007A00064E080E690E076DD80E690E0DCDF41E02A
:1007B00061E580E690E0A4DF80E690E060DD93DD17
:1007C00008950F931F9381E0A0DD892B19F41F91E9
:1007D0000F910895E9DC0091610010916200209171
:1007E000630030916400601B710B820B930B6B30C4
:1007F00071058105910590F0D7DC009161001091A1
:1008000062002091630030916400601B710B820BC9
:10081000930B683E734081059105E0F0C5DC0091C3
:100820006100109162002091630030916400601BB0
:10083000710B820B930B693E73408105910538F56E
:10084000B3DC6093610070936200809363009093C7
:100850006400BDCFE7DDA0DFD3DD6CE474E080E0B1
:1008600090E079DCDBDD64E670E080E090E073DC52
:10087000D9DD7CDFC5DD68EE73E080E090E06BDC05
:10088000CDDD64E670E080E090E065DCD9CFCADDC4
:1008900020DEB6DD68E176E080E090E05CDCBEDD85
:1008A00064E670E080E090E056DCCACFCF93DF933F
:1008B00061E580E690E0FFDC60E080E690E0EADC65
:1008C00080E690E050DF41E061E580E690E018DFEF
:1008D00080E690E0D4DCEC0161E580E690E0EBDCC2
:1008E00062E080E690E0D6DC80E690E03CDF41E02C
:1008F00061E580E690E004DF80E690E0C0DCD5951D
:10090000C795D595C795D595C795D595C795D595CF
:10091000C795C170881F8827881FC82B81E009F000
:1009200080E0DF91CF91089580E690E0CADC61E538
:1009300080E690E0C0DC80E690E015DF91E0811178
:1009400090E0892F089564E670E080E090E003DC99
:10095000EBDF62E081E06ADD60E085E067DD61E0B9
:1009600084E064DD61E083E061DDA0DF81110FC020
:1009700059DD8CE245DD6CE474E080E090E0EBDB77
:100980004DDD64E670E080E090E0E5DBEECF46DD33
:1009900008951F920F920FB60F9211242F933F9339
:1009A0008F939F93AF93BF9380917B0090917C0036
:1009B000A0917D00B0917E0030917A0026E0230F57
:1009C0002D3758F50296A11DB11D20937A00809312
:1009D0007B0090937C00A0937D00B0937E0080917B
:1009E0007F0090918000A0918100B09182000196DB
:1009F000A11DB11D80937F0090938000A093810082
:100A0000B0938200BF91AF919F918F913F912F91B1
:100A10000F900FBE0F901F90189529E8230F039693
:100A2000A11DB11DD2CF60DB8EDFCBDEFECF6FEF1D
:100A30007FEF81E090E047DC0895EE27FF27AA27AB
:100A4000BB2708C0A20FB31FE41FF51F220F331FDF
:100A5000441F551F969587957795679598F3704035
:100A6000A9F7009799F7BD01CF010895052E97FBCF
:100A700016F400940FD057FD05D014D007FC02D017
:100A800046F408C050954095309521953F4F4F4F03
:100A90005F4F089590958095709561957F4F8F4F2A
:100AA0009F4F0895A1E21A2EAA1BBB1BFD010DC08A
:100AB000AA1FBB1FEE1FFF1FA217B307E407F5070E
:100AC00020F0A21BB30BE40BF50B661F771F881FEA
:100AD000991F1A9469F760957095809590959B0180
:100AE000AC01BD01CF010895EE0FFF1F0590F491F9
:080AF000E02D0994F894FFCFFA
:00000001FF
