:100000000FC028C027C026C025C054C123C022C0AD
:1000100021C020C01FC01EC01DC01CC01BC09F022D
:1000200011241FBECFE5D2E0DEBFCDBF20E0A0E6A9
:10003000B0E001C01D92AD37B207E1F710E0C0E1BA
:10004000D0E003C02197FE01C8D2CF30D107D1F74D
:1000500056D1C9C2D5CF2CEC37E0019708F40895EA
:10006000F9013197F1F7F9CF0F931F934FB7F89438
:100070008091600090916100A0916200B091630056
:1000800060916000709161008091620090916300C6
:100090000091600010916100209162003091630036
:1000A0004FBF42E096958795779567954A95D1F72A
:1000B000012F122F232F3327600F711F821F931FD1
:1000C0001F910F910895C3980895C39A0895CF93EF
:1000D000C82FCC2379F081E090E0BDDF8CB581782A
:1000E00080648CBDC49A8CB5817880648CBDC498C2
:1000F000C150EFCFCF910895C098C29AB29BFECF66
:100100008AE08A95F1F700C0C09A8DE08A95F1F7F0
:1001100000009EB1892F807295FD04C094E09093F9
:100120007C00089581E00895C29AC29BFECF8DE0C5
:100130008A95F1F70000C0988AE08A95F1F700C02F
:10014000C298C09A779905C083E080937C0080E0D4
:10015000089581E008958EB98BE29DE09A95F1F7BC
:1001600000008DB9B29BFECF9AE09A95F1F700C0DE
:100170008DB9769BF2CF8DE08A95F1F700008FB1B3
:100180009FEF9FB9B89A0895CF92DF92EF92FF92B6
:100190000F931F93CF93DF93082F80917C00816092
:1001A00080937C0090916A0090FD03C082608093F0
:1001B0007C00BADF882319F1102FCAE6D0E0DD24D5
:1001C000DA94CC24C3947E018FEFE81AF80A809168
:1001D0007C008370D1F1C29888818FB980EFBBDF3A
:1001E000B8988EEFB8DF90917C0080FF15C0892F02
:1001F000817090FF0DC081E080937C0080E0DF91F2
:10020000CF911F910F91FF90EF90DF90CF900895C5
:1002100092E090937C00F3CF892F8570843061F455
:1002200080916A00816080936A00C0927C007CDFCC
:10023000811117C09AE0EDCF9E7F90937C00E7017B
:10024000115009F0C0CF81E0DACFB89880EF83DF9A
:100250008883113021F4DFB88EEF7DDFF0CF1FB837
:10026000FBCF102FCAE6D0E0EBCF1092680083EAF4
:1002700080936A0010927C0082E086DF882319F068
:100280003BDF811103C080917C00089580E00895D8
:100290008091690010927C008F5F76DF1092690078
:1002A000882319F029DF811103C080917C00089513
:1002B00080E008951F920F920FB60F9211248F9332
:1002C0009F93AF93BF938091600090916100A09144
:1002D0006200B09163000196A11DB11D8093600082
:1002E00090936100A0936200B0936300BF91AF91BF
:1002F0009F918F910F900FBE0F901F9018958AB508
:1003000083608ABD89B7826089BF83B7826083BFFB
:1003100012BE789486E886B988EE93E09CDEC09A97
:10032000C29ABA9AB89A8FEF8FB98AE28DB980EFE4
:100330008EB91092690082EA80936A00A9DF8FB7B4
:10034000F894B998C19A8FBF8FB7F894BD98C598A3
:100350008FBFBC9ABB9A12EA01E022E0F22E109302
:100360006A000093690010926B0092DF7EDFE091DB
:100370006800EF5FE0936800F0E0E659FF4FC0814E
:1003800010936A0000936900F0926B0081DF6DDFCB
:10039000E0916800EF5FE0936800C5FBCC27C0F9EF
:1003A000F0E0E659FF4F8081881F8827881FC82BFF
:1003B00059F08BDE8CE28BDE8CE494E04CDE83DE45
:1003C00084E690E048DECBCF7EDE15E084E2C82EE6
:1003D000DD24D394E12CF12CC2EAD1E004E093E0D7
:1003E000B92EB19BFECF40DE409064005090650076
:1003F0006090660070906700641975098609970916
:100400006B3071058105910508F456C02DDE641925
:10041000750986099709683E73408105910508F0C2
:100420004BC053DEC0936A00D093690000936B0009
:100430002FDF1BDFE0916800EF5FE0936800F0E0E2
:10044000E659FF4F9081892F82958F706AEF81D096
:10045000890F3DDE8CE494E0FEDD35DE84E690E03D
:10046000FADD33DEC0936A00D0936900B0926B006E
:100470000FDFFBDEE0916800EF5FE0936800F0E0E3
:10048000E659FF4F90819F77892F82958F706AEF91
:1004900060D0890F1CDE88EE93E0DDDD14DE84E69B
:1004A00090E0D9DDE1DD6093640070936500809396
:1004B00066009093670095CFD7DD641975098609AA
:1004C0009709693E73408105910560F3FEDD8FB7A2
:1004D000F894BD98C5988FBF17B987B187B9369A78
:1004E0003699FECF84B125B1322F282FB9012B3D8B
:1004F00042E0340714F46BED72E0072E000C880B19
:10050000990B2C3D3240BCF06F3F23E07207810510
:10051000910598F46B5D72408109910924E630E001
:1005200040E050E01FD0A701960135D0822FCFDDEB
:1005300088E196E0B2CF80E0FACF84E6F8CF94DD90
:1005400060936400709365008093660090936700E9
:100550000895002480FD060E660F11F08695D1F7F0
:10056000802D0895EE27FF27AA27BB2708C0A20FDA
:10057000B31FE41FF51F220F331F441F551F96950D
:1005800087957795679598F37040A9F7009799F745
:10059000BD01CF010895A1E21A2EAA1BBB1BFD01CC
:1005A0000DC0AA1FBB1FEE1FFF1FA217B307E40752
:1005B000F50720F0A21BB30BE40BF50B661F771FAA
:1005C000881F991F1A9469F760957095809590958A
:1005D0009B01AC01BD01CF010895EE0FFF1F0590F7
:0A05E000F491E02D0994F894FFCF88
:00000001FF
